{
  "address": "0xCDC051b3E9034fF44B34fd2d42B441b41d95fAd8",
  "abi": [
    {
      "inputs": [],
      "stateMutability": "nonpayable",
      "type": "constructor"
    },
    {
      "inputs": [
        {
          "internalType": "address",
          "name": "tokenAddress",
          "type": "address"
        },
        {
          "internalType": "address[]",
          "name": "recipients",
          "type": "address[]"
        },
        {
          "internalType": "uint256[]",
          "name": "tokenIds",
          "type": "uint256[]"
        },
        {
          "internalType": "uint256[]",
          "name": "amounts",
          "type": "uint256[]"
        }
      ],
      "name": "batchTransferERC1155",
      "outputs": [],
      "stateMutability": "nonpayable",
      "type": "function"
    },
    {
      "inputs": [
        {
          "internalType": "address",
          "name": "tokenAddress",
          "type": "address"
        },
        {
          "internalType": "address[]",
          "name": "recipients",
          "type": "address[]"
        },
        {
          "internalType": "uint256[]",
          "name": "amounts",
          "type": "uint256[]"
        }
      ],
      "name": "batchTransferERC20",
      "outputs": [],
      "stateMutability": "nonpayable",
      "type": "function"
    },
    {
      "inputs": [
        {
          "internalType": "address",
          "name": "tokenAddress",
          "type": "address"
        },
        {
          "internalType": "address[]",
          "name": "recipients",
          "type": "address[]"
        },
        {
          "internalType": "uint256[]",
          "name": "tokenIds",
          "type": "uint256[]"
        }
      ],
      "name": "batchTransferERC721",
      "outputs": [],
      "stateMutability": "nonpayable",
      "type": "function"
    }
  ],
  "transactionHash": "0x5919b0786653591b7b34ee1b79135fe655d204b99ba339ab0e1e355b76aa21d5",
  "args": [],
  "numDeployments": 2,
  "solcInputHash": "28426533ab2bbfeba1205d202a3681dd",
  "bytecode": "0x608060405234801561001057600080fd5b5061095e806100206000396000f3fe608060405234801561001057600080fd5b50600436106100415760003560e01c806305a5ebba1461004657806318947bf71461006257806379f2447e1461007e575b600080fd5b610060600480360381019061005b9190610527565b61009a565b005b61007c600480360381019061007791906105f0565b6101ee565b005b610098600480360381019061009391906105f0565b610314565b005b83839050868690501480156100b457508181905086869050145b6100f3576040517f08c379a00000000000000000000000000000000000000000000000000000000081526004016100ea906106e2565b60405180910390fd5b600087905060005b878790508110156101e3578173ffffffffffffffffffffffffffffffffffffffff1663f242432a338a8a8581811061013657610135610702565b5b905060200201602081019061014b9190610731565b89898681811061015e5761015d610702565b5b9050602002013588888781811061017857610177610702565b5b905060200201356040518563ffffffff1660e01b815260040161019e94939291906107bd565b600060405180830381600087803b1580156101b857600080fd5b505af11580156101cc573d6000803e3d6000fd5b5050505080806101db90610844565b9150506100fb565b505050505050505050565b818190508484905014610236576040517f08c379a000000000000000000000000000000000000000000000000000000000815260040161022d906106e2565b60405180910390fd5b600085905060005b8585905081101561030b578173ffffffffffffffffffffffffffffffffffffffff166342842e0e3388888581811061027957610278610702565b5b905060200201602081019061028e9190610731565b8787868181106102a1576102a0610702565b5b905060200201356040518463ffffffff1660e01b81526004016102c69392919061088c565b600060405180830381600087803b1580156102e057600080fd5b505af11580156102f4573d6000803e3d6000fd5b50505050808061030390610844565b91505061023e565b50505050505050565b600085905060005b858590508110156103fb578173ffffffffffffffffffffffffffffffffffffffff166323b872dd3388888581811061035757610356610702565b5b905060200201602081019061036c9190610731565b87878681811061037f5761037e610702565b5b905060200201356040518463ffffffff1660e01b81526004016103a49392919061088c565b6020604051808303816000875af11580156103c3573d6000803e3d6000fd5b505050506040513d601f19601f820116820180604052508101906103e791906108fb565b5080806103f390610844565b91505061031c565b50505050505050565b600080fd5b600080fd5b600073ffffffffffffffffffffffffffffffffffffffff82169050919050565b60006104398261040e565b9050919050565b6104498161042e565b811461045457600080fd5b50565b60008135905061046681610440565b92915050565b600080fd5b600080fd5b600080fd5b60008083601f8401126104915761049061046c565b5b8235905067ffffffffffffffff8111156104ae576104ad610471565b5b6020830191508360208202830111156104ca576104c9610476565b5b9250929050565b60008083601f8401126104e7576104e661046c565b5b8235905067ffffffffffffffff81111561050457610503610471565b5b6020830191508360208202830111156105205761051f610476565b5b9250929050565b60008060008060008060006080888a03121561054657610545610404565b5b60006105548a828b01610457565b975050602088013567ffffffffffffffff81111561057557610574610409565b5b6105818a828b0161047b565b9650965050604088013567ffffffffffffffff8111156105a4576105a3610409565b5b6105b08a828b016104d1565b9450945050606088013567ffffffffffffffff8111156105d3576105d2610409565b5b6105df8a828b016104d1565b925092505092959891949750929550565b60008060008060006060868803121561060c5761060b610404565b5b600061061a88828901610457565b955050602086013567ffffffffffffffff81111561063b5761063a610409565b5b6106478882890161047b565b9450945050604086013567ffffffffffffffff81111561066a57610669610409565b5b610676888289016104d1565b92509250509295509295909350565b600082825260208201905092915050565b7f496e707574206c656e6774687320646f206e6f74206d61746368000000000000600082015250565b60006106cc601a83610685565b91506106d782610696565b602082019050919050565b600060208201905081810360008301526106fb816106bf565b9050919050565b7f4e487b7100000000000000000000000000000000000000000000000000000000600052603260045260246000fd5b60006020828403121561074757610746610404565b5b600061075584828501610457565b91505092915050565b6107678161042e565b82525050565b6000819050919050565b6107808161076d565b82525050565b600082825260208201905092915050565b50565b60006107a7600083610786565b91506107b282610797565b600082019050919050565b600060a0820190506107d2600083018761075e565b6107df602083018661075e565b6107ec6040830185610777565b6107f96060830184610777565b818103608083015261080a8161079a565b905095945050505050565b7f4e487b7100000000000000000000000000000000000000000000000000000000600052601160045260246000fd5b600061084f8261076d565b91507fffffffffffffffffffffffffffffffffffffffffffffffffffffffffffffffff820361088157610880610815565b5b600182019050919050565b60006060820190506108a1600083018661075e565b6108ae602083018561075e565b6108bb6040830184610777565b949350505050565b60008115159050919050565b6108d8816108c3565b81146108e357600080fd5b50565b6000815190506108f5816108cf565b92915050565b60006020828403121561091157610910610404565b5b600061091f848285016108e6565b9150509291505056fea26469706673582212202db2dd6e7a638c89214696bea24e24e428120f43055a4d53190252b64bc5bde464736f6c63430008140033",
  "devdoc": {
    "kind": "dev",
    "methods": {},
    "version": 1
  },
  "userdoc": {
    "kind": "user",
    "methods": {},
    "version": 1
  },
  "storageLayout": {
    "storage": [],
    "types": null
  }
}