{
  "address": "0x46f696cCE815B6BEBf7dAc2a1af96506E0a6cA86",
  "abi": [
    {
      "inputs": [],
      "stateMutability": "nonpayable",
      "type": "constructor"
    },
    {
      "anonymous": false,
      "inputs": [
        {
          "indexed": true,
          "internalType": "address",
          "name": "account",
          "type": "address"
        },
        {
          "indexed": true,
          "internalType": "address",
          "name": "operator",
          "type": "address"
        },
        {
          "indexed": false,
          "internalType": "bool",
          "name": "approved",
          "type": "bool"
        }
      ],
      "name": "ApprovalForAll",
      "type": "event"
    },
    {
      "anonymous": false,
      "inputs": [
        {
          "indexed": true,
          "internalType": "uint256",
          "name": "tokenId",
          "type": "uint256"
        },
        {
          "indexed": true,
          "internalType": "address",
          "name": "creator",
          "type": "address"
        }
      ],
      "name": "CreatorChanged",
      "type": "event"
    },
    {
      "anonymous": false,
      "inputs": [
        {
          "indexed": true,
          "internalType": "address",
          "name": "previousOwner",
          "type": "address"
        },
        {
          "indexed": true,
          "internalType": "address",
          "name": "newOwner",
          "type": "address"
        }
      ],
      "name": "OwnershipTransferred",
      "type": "event"
    },
    {
      "anonymous": false,
      "inputs": [
        {
          "indexed": true,
          "internalType": "uint256",
          "name": "tokenId",
          "type": "uint256"
        },
        {
          "indexed": true,
          "internalType": "bytes",
          "name": "signature",
          "type": "bytes"
        }
      ],
      "name": "SignatureUsed",
      "type": "event"
    },
    {
      "anonymous": false,
      "inputs": [
        {
          "indexed": true,
          "internalType": "address",
          "name": "signer",
          "type": "address"
        }
      ],
      "name": "SignerChanged",
      "type": "event"
    },
    {
      "anonymous": false,
      "inputs": [
        {
          "indexed": true,
          "internalType": "address",
          "name": "operator",
          "type": "address"
        },
        {
          "indexed": true,
          "internalType": "address",
          "name": "from",
          "type": "address"
        },
        {
          "indexed": true,
          "internalType": "address",
          "name": "to",
          "type": "address"
        },
        {
          "indexed": false,
          "internalType": "uint256[]",
          "name": "ids",
          "type": "uint256[]"
        },
        {
          "indexed": false,
          "internalType": "uint256[]",
          "name": "values",
          "type": "uint256[]"
        }
      ],
      "name": "TransferBatch",
      "type": "event"
    },
    {
      "anonymous": false,
      "inputs": [
        {
          "indexed": true,
          "internalType": "address",
          "name": "operator",
          "type": "address"
        },
        {
          "indexed": true,
          "internalType": "address",
          "name": "from",
          "type": "address"
        },
        {
          "indexed": true,
          "internalType": "address",
          "name": "to",
          "type": "address"
        },
        {
          "indexed": false,
          "internalType": "uint256",
          "name": "id",
          "type": "uint256"
        },
        {
          "indexed": false,
          "internalType": "uint256",
          "name": "value",
          "type": "uint256"
        }
      ],
      "name": "TransferSingle",
      "type": "event"
    },
    {
      "anonymous": false,
      "inputs": [
        {
          "indexed": false,
          "internalType": "string",
          "name": "value",
          "type": "string"
        },
        {
          "indexed": true,
          "internalType": "uint256",
          "name": "id",
          "type": "uint256"
        }
      ],
      "name": "URI",
      "type": "event"
    },
    {
      "inputs": [
        {
          "internalType": "uint256",
          "name": "",
          "type": "uint256"
        }
      ],
      "name": "_creatorOverride",
      "outputs": [
        {
          "internalType": "address",
          "name": "",
          "type": "address"
        }
      ],
      "stateMutability": "view",
      "type": "function"
    },
    {
      "inputs": [
        {
          "internalType": "address",
          "name": "account",
          "type": "address"
        },
        {
          "internalType": "uint256",
          "name": "id",
          "type": "uint256"
        }
      ],
      "name": "balanceOf",
      "outputs": [
        {
          "internalType": "uint256",
          "name": "",
          "type": "uint256"
        }
      ],
      "stateMutability": "view",
      "type": "function"
    },
    {
      "inputs": [
        {
          "internalType": "address[]",
          "name": "accounts",
          "type": "address[]"
        },
        {
          "internalType": "uint256[]",
          "name": "ids",
          "type": "uint256[]"
        }
      ],
      "name": "balanceOfBatch",
      "outputs": [
        {
          "internalType": "uint256[]",
          "name": "",
          "type": "uint256[]"
        }
      ],
      "stateMutability": "view",
      "type": "function"
    },
    {
      "inputs": [
        {
          "internalType": "uint256",
          "name": "amount",
          "type": "uint256"
        },
        {
          "internalType": "uint256",
          "name": "tokenId",
          "type": "uint256"
        },
        {
          "internalType": "uint256",
          "name": "nonce",
          "type": "uint256"
        },
        {
          "internalType": "bytes",
          "name": "signature",
          "type": "bytes"
        }
      ],
      "name": "claimBadge",
      "outputs": [],
      "stateMutability": "nonpayable",
      "type": "function"
    },
    {
      "inputs": [
        {
          "internalType": "uint256",
          "name": "_id",
          "type": "uint256"
        }
      ],
      "name": "creator",
      "outputs": [
        {
          "internalType": "address",
          "name": "",
          "type": "address"
        }
      ],
      "stateMutability": "view",
      "type": "function"
    },
    {
      "inputs": [
        {
          "internalType": "uint256",
          "name": "id",
          "type": "uint256"
        }
      ],
      "name": "exists",
      "outputs": [
        {
          "internalType": "bool",
          "name": "",
          "type": "bool"
        }
      ],
      "stateMutability": "view",
      "type": "function"
    },
    {
      "inputs": [],
      "name": "initialize",
      "outputs": [],
      "stateMutability": "nonpayable",
      "type": "function"
    },
    {
      "inputs": [
        {
          "internalType": "address",
          "name": "account",
          "type": "address"
        },
        {
          "internalType": "address",
          "name": "operator",
          "type": "address"
        }
      ],
      "name": "isApprovedForAll",
      "outputs": [
        {
          "internalType": "bool",
          "name": "",
          "type": "bool"
        }
      ],
      "stateMutability": "view",
      "type": "function"
    },
    {
      "inputs": [],
      "name": "owner",
      "outputs": [
        {
          "internalType": "address",
          "name": "",
          "type": "address"
        }
      ],
      "stateMutability": "view",
      "type": "function"
    },
    {
      "inputs": [],
      "name": "renounceOwnership",
      "outputs": [],
      "stateMutability": "nonpayable",
      "type": "function"
    },
    {
      "inputs": [
        {
          "internalType": "address",
          "name": "from",
          "type": "address"
        },
        {
          "internalType": "address",
          "name": "to",
          "type": "address"
        },
        {
          "internalType": "uint256[]",
          "name": "ids",
          "type": "uint256[]"
        },
        {
          "internalType": "uint256[]",
          "name": "amounts",
          "type": "uint256[]"
        },
        {
          "internalType": "bytes",
          "name": "data",
          "type": "bytes"
        }
      ],
      "name": "safeBatchTransferFrom",
      "outputs": [],
      "stateMutability": "nonpayable",
      "type": "function"
    },
    {
      "inputs": [
        {
          "internalType": "address",
          "name": "from",
          "type": "address"
        },
        {
          "internalType": "address",
          "name": "to",
          "type": "address"
        },
        {
          "internalType": "uint256",
          "name": "id",
          "type": "uint256"
        },
        {
          "internalType": "uint256",
          "name": "amount",
          "type": "uint256"
        },
        {
          "internalType": "bytes",
          "name": "data",
          "type": "bytes"
        }
      ],
      "name": "safeTransferFrom",
      "outputs": [],
      "stateMutability": "nonpayable",
      "type": "function"
    },
    {
      "inputs": [
        {
          "internalType": "address",
          "name": "operator",
          "type": "address"
        },
        {
          "internalType": "bool",
          "name": "approved",
          "type": "bool"
        }
      ],
      "name": "setApprovalForAll",
      "outputs": [],
      "stateMutability": "nonpayable",
      "type": "function"
    },
    {
      "inputs": [
        {
          "internalType": "uint256",
          "name": "_id",
          "type": "uint256"
        },
        {
          "internalType": "address",
          "name": "_creator",
          "type": "address"
        }
      ],
      "name": "setCreator",
      "outputs": [],
      "stateMutability": "nonpayable",
      "type": "function"
    },
    {
      "inputs": [
        {
          "internalType": "address",
          "name": "newSigner",
          "type": "address"
        }
      ],
      "name": "setSigner",
      "outputs": [],
      "stateMutability": "nonpayable",
      "type": "function"
    },
    {
      "inputs": [
        {
          "internalType": "string",
          "name": "newuri",
          "type": "string"
        }
      ],
      "name": "setUri",
      "outputs": [],
      "stateMutability": "nonpayable",
      "type": "function"
    },
    {
      "inputs": [
        {
          "internalType": "bytes",
          "name": "",
          "type": "bytes"
        }
      ],
      "name": "signatureUsed",
      "outputs": [
        {
          "internalType": "bool",
          "name": "",
          "type": "bool"
        }
      ],
      "stateMutability": "view",
      "type": "function"
    },
    {
      "inputs": [],
      "name": "signer",
      "outputs": [
        {
          "internalType": "address",
          "name": "",
          "type": "address"
        }
      ],
      "stateMutability": "view",
      "type": "function"
    },
    {
      "inputs": [
        {
          "internalType": "bytes4",
          "name": "interfaceId",
          "type": "bytes4"
        }
      ],
      "name": "supportsInterface",
      "outputs": [
        {
          "internalType": "bool",
          "name": "",
          "type": "bool"
        }
      ],
      "stateMutability": "view",
      "type": "function"
    },
    {
      "inputs": [
        {
          "internalType": "uint256",
          "name": "id",
          "type": "uint256"
        }
      ],
      "name": "totalSupply",
      "outputs": [
        {
          "internalType": "uint256",
          "name": "",
          "type": "uint256"
        }
      ],
      "stateMutability": "view",
      "type": "function"
    },
    {
      "inputs": [
        {
          "internalType": "address",
          "name": "newOwner",
          "type": "address"
        }
      ],
      "name": "transferOwnership",
      "outputs": [],
      "stateMutability": "nonpayable",
      "type": "function"
    },
    {
      "inputs": [
        {
          "internalType": "uint256",
          "name": "tokenId",
          "type": "uint256"
        }
      ],
      "name": "uri",
      "outputs": [
        {
          "internalType": "string",
          "name": "",
          "type": "string"
        }
      ],
      "stateMutability": "view",
      "type": "function"
    },
    {
      "inputs": [
        {
          "internalType": "uint256",
          "name": "_amount",
          "type": "uint256"
        },
        {
          "internalType": "address",
          "name": "_addr",
          "type": "address"
        },
        {
          "internalType": "uint256",
          "name": "_tokenId",
          "type": "uint256"
        },
        {
          "internalType": "uint256",
          "name": "_nonce",
          "type": "uint256"
        },
        {
          "internalType": "bytes",
          "name": "_signature",
          "type": "bytes"
        }
      ],
      "name": "verifySignature",
      "outputs": [
        {
          "internalType": "address",
          "name": "",
          "type": "address"
        }
      ],
      "stateMutability": "pure",
      "type": "function"
    }
  ],
  "transactionHash": "0xd0bc9710ac366990b3179aa29eea43d786abd45c427843bf221b6e9db3d45347",
  "args": [],
  "numDeployments": 1,
  "solcInputHash": "5262bef1ff6ed83de8643ed2e135f400",
  "bytecode": "0x60806040523480156200001157600080fd5b506040518060200160405280600081525062000033816200005a60201b60201c565b5062000054620000486200006f60201b60201c565b6200007760201b60201c565b6200049e565b80600290816200006b9190620003b7565b5050565b600033905090565b6000600460009054906101000a900473ffffffffffffffffffffffffffffffffffffffff16905081600460006101000a81548173ffffffffffffffffffffffffffffffffffffffff021916908373ffffffffffffffffffffffffffffffffffffffff1602179055508173ffffffffffffffffffffffffffffffffffffffff168173ffffffffffffffffffffffffffffffffffffffff167f8be0079c531659141344cd1fd0a4f28419497f9722a3daafe3b4186f6b6457e060405160405180910390a35050565b600081519050919050565b7f4e487b7100000000000000000000000000000000000000000000000000000000600052604160045260246000fd5b7f4e487b7100000000000000000000000000000000000000000000000000000000600052602260045260246000fd5b60006002820490506001821680620001bf57607f821691505b602082108103620001d557620001d462000177565b5b50919050565b60008190508160005260206000209050919050565b60006020601f8301049050919050565b600082821b905092915050565b6000600883026200023f7fffffffffffffffffffffffffffffffffffffffffffffffffffffffffffffffff8262000200565b6200024b868362000200565b95508019841693508086168417925050509392505050565b6000819050919050565b6000819050919050565b600062000298620002926200028c8462000263565b6200026d565b62000263565b9050919050565b6000819050919050565b620002b48362000277565b620002cc620002c3826200029f565b8484546200020d565b825550505050565b600090565b620002e3620002d4565b620002f0818484620002a9565b505050565b5b8181101562000318576200030c600082620002d9565b600181019050620002f6565b5050565b601f82111562000367576200033181620001db565b6200033c84620001f0565b810160208510156200034c578190505b620003646200035b85620001f0565b830182620002f5565b50505b505050565b600082821c905092915050565b60006200038c600019846008026200036c565b1980831691505092915050565b6000620003a7838362000379565b9150826002028217905092915050565b620003c2826200013d565b67ffffffffffffffff811115620003de57620003dd62000148565b5b620003ea8254620001a6565b620003f78282856200031c565b600060209050601f8311600181146200042f57600084156200041a578287015190505b62000426858262000399565b86555062000496565b601f1984166200043f86620001db565b60005b82811015620004695784890151825560018201915060208501945060208101905062000442565b8683101562000489578489015162000485601f89168262000379565b8355505b6001600288020188555050505b505050505050565b6144f180620004ae6000396000f3fe608060405234801561001057600080fd5b506004361061014c5760003560e01c8063715018a6116100c3578063abe543e51161007c578063abe543e514610399578063bb10c829146103c9578063bd85b039146103f9578063e985e9c514610429578063f242432a14610459578063f2fde38b146104755761014c565b8063715018a6146103135780638129fc1c1461031d5780638da5cb5b1461032757806391686f53146103455780639b642de114610361578063a22cb4651461037d5761014c565b8063364e5fd511610115578063364e5fd51461021b5780634e1273f41461024b5780634f558e791461027b578063510b5158146102ab5780636c19e783146102db5780636f99b290146102f75761014c565b8062fdd58e1461015157806301ffc9a7146101815780630e89341c146101b1578063238ac933146101e15780632eb2c2d6146101ff575b600080fd5b61016b6004803603810190610166919061265b565b610491565b60405161017891906126aa565b60405180910390f35b61019b6004803603810190610196919061271d565b610559565b6040516101a89190612765565b60405180910390f35b6101cb60048036038101906101c69190612780565b61063b565b6040516101d8919061283d565b60405180910390f35b6101e9610676565b6040516101f6919061286e565b60405180910390f35b61021960048036038101906102149190612a86565b61069c565b005b61023560048036038101906102309190612780565b61073d565b604051610242919061286e565b60405180910390f35b61026560048036038101906102609190612c18565b610770565b6040516102729190612d4e565b60405180910390f35b61029560048036038101906102909190612780565b610889565b6040516102a29190612765565b60405180910390f35b6102c560048036038101906102c09190612780565b61089d565b6040516102d2919061286e565b60405180910390f35b6102f560048036038101906102f09190612d70565b610925565b005b610311600480360381019061030c9190612d9d565b6109b4565b005b61031b610b57565b005b610325610b6b565b005b61032f610bec565b60405161033c919061286e565b60405180910390f35b61035f600480360381019061035a9190612e20565b610c16565b005b61037b60048036038101906103769190612f01565b610cb8565b005b61039760048036038101906103929190612f76565b610ccc565b005b6103b360048036038101906103ae9190612fb6565b610ce2565b6040516103c0919061286e565b60405180910390f35b6103e360048036038101906103de919061304d565b610d56565b6040516103f09190612765565b60405180910390f35b610413600480360381019061040e9190612780565b610d8c565b60405161042091906126aa565b60405180910390f35b610443600480360381019061043e9190613096565b610da9565b6040516104509190612765565b60405180910390f35b610473600480360381019061046e91906130d6565b610e3d565b005b61048f600480360381019061048a9190612d70565b610ede565b005b60008073ffffffffffffffffffffffffffffffffffffffff168373ffffffffffffffffffffffffffffffffffffffff1603610501576040517f08c379a00000000000000000000000000000000000000000000000000000000081526004016104f8906131df565b60405180910390fd5b60008083815260200190815260200160002060008473ffffffffffffffffffffffffffffffffffffffff1673ffffffffffffffffffffffffffffffffffffffff16815260200190815260200160002054905092915050565b60007fd9b67a26000000000000000000000000000000000000000000000000000000007bffffffffffffffffffffffffffffffffffffffffffffffffffffffff1916827bffffffffffffffffffffffffffffffffffffffffffffffffffffffff1916148061062457507f0e89341c000000000000000000000000000000000000000000000000000000007bffffffffffffffffffffffffffffffffffffffffffffffffffffffff1916827bffffffffffffffffffffffffffffffffffffffffffffffffffffffff1916145b80610634575061063382610f61565b5b9050919050565b606061064682610fcb565b61064f8361105f565b604051602001610660929190613287565b6040516020818303038152906040529050919050565b600760009054906101000a900473ffffffffffffffffffffffffffffffffffffffff1681565b6106a461112d565b73ffffffffffffffffffffffffffffffffffffffff168573ffffffffffffffffffffffffffffffffffffffff1614806106ea57506106e9856106e461112d565b610da9565b5b610729576040517f08c379a000000000000000000000000000000000000000000000000000000000815260040161072090613328565b60405180910390fd5b6107368585858585611135565b5050505050565b60066020528060005260406000206000915054906101000a900473ffffffffffffffffffffffffffffffffffffffff1681565b606081518351146107b6576040517f08c379a00000000000000000000000000000000000000000000000000000000081526004016107ad906133ba565b60405180910390fd5b6000835167ffffffffffffffff8111156107d3576107d261288e565b5b6040519080825280602002602001820160405280156108015781602001602082028036833780820191505090505b50905060005b845181101561087e5761084e858281518110610826576108256133da565b5b6020026020010151858381518110610841576108406133da565b5b6020026020010151610491565b828281518110610861576108606133da565b5b6020026020010181815250508061087790613438565b9050610807565b508091505092915050565b60008061089583610d8c565b119050919050565b6000806006600084815260200190815260200160002060009054906101000a900473ffffffffffffffffffffffffffffffffffffffff169050600073ffffffffffffffffffffffffffffffffffffffff168173ffffffffffffffffffffffffffffffffffffffff16146109135780915050610920565b61091c83611456565b9150505b919050565b61092d611467565b80600760006101000a81548173ffffffffffffffffffffffffffffffffffffffff021916908373ffffffffffffffffffffffffffffffffffffffff1602179055508073ffffffffffffffffffffffffffffffffffffffff167f5719a5656c5cfdaafa148ecf366fd3b0a7fae06449ce2a46225977fb7417e29d60405160405180910390a250565b600760009054906101000a900473ffffffffffffffffffffffffffffffffffffffff1673ffffffffffffffffffffffffffffffffffffffff166109fa8533868686610ce2565b73ffffffffffffffffffffffffffffffffffffffff1614610a50576040517f08c379a0000000000000000000000000000000000000000000000000000000008152600401610a47906134cc565b60405180910390fd5b600581604051610a609190613533565b908152602001604051809103902060009054906101000a900460ff1615610abc576040517f08c379a0000000000000000000000000000000000000000000000000000000008152600401610ab390613596565b60405180910390fd5b610ad7338486604051806020016040528060008152506114e5565b6001600582604051610ae99190613533565b908152602001604051809103902060006101000a81548160ff02191690831515021790555080604051610b1c9190613533565b6040518091039020837fd29e1852b9afabc094154c7e1e94806e2e3fb79ab96a980a97ec40a755e0bcf460405160405180910390a350505050565b610b5f611467565b610b696000611695565b565b600073ffffffffffffffffffffffffffffffffffffffff16610b8b610bec565b73ffffffffffffffffffffffffffffffffffffffff1614610be1576040517f08c379a0000000000000000000000000000000000000000000000000000000008152600401610bd890613602565b60405180910390fd5b610bea33611695565b565b6000600460009054906101000a900473ffffffffffffffffffffffffffffffffffffffff16905090565b610c1e611467565b806006600084815260200190815260200160002060006101000a81548173ffffffffffffffffffffffffffffffffffffffff021916908373ffffffffffffffffffffffffffffffffffffffff1602179055508073ffffffffffffffffffffffffffffffffffffffff16827f39071c63e44267bfdefc7b625c0df99d3ce2e6ff98d9f5e9e8a7ab43cdf5000d60405160405180910390a35050565b610cc0611467565b610cc98161175b565b50565b610cde610cd761112d565b838361176e565b5050565b60008086868686604051602001610cfc949392919061368b565b604051602081830303815290604052805190602001209050600081604051602001610d279190613750565b604051602081830303815290604052805190602001209050610d4981856118da565b9250505095945050505050565b6005818051602081018201805184825260208301602085012081835280955050505050506000915054906101000a900460ff1681565b600060036000838152602001908152602001600020549050919050565b6000600160008473ffffffffffffffffffffffffffffffffffffffff1673ffffffffffffffffffffffffffffffffffffffff16815260200190815260200160002060008373ffffffffffffffffffffffffffffffffffffffff1673ffffffffffffffffffffffffffffffffffffffff16815260200190815260200160002060009054906101000a900460ff16905092915050565b610e4561112d565b73ffffffffffffffffffffffffffffffffffffffff168573ffffffffffffffffffffffffffffffffffffffff161480610e8b5750610e8a85610e8561112d565b610da9565b5b610eca576040517f08c379a0000000000000000000000000000000000000000000000000000000008152600401610ec190613328565b60405180910390fd5b610ed78585858585611901565b5050505050565b610ee6611467565b600073ffffffffffffffffffffffffffffffffffffffff168173ffffffffffffffffffffffffffffffffffffffff1603610f55576040517f08c379a0000000000000000000000000000000000000000000000000000000008152600401610f4c906137e8565b60405180910390fd5b610f5e81611695565b50565b60007f01ffc9a7000000000000000000000000000000000000000000000000000000007bffffffffffffffffffffffffffffffffffffffffffffffffffffffff1916827bffffffffffffffffffffffffffffffffffffffffffffffffffffffff1916149050919050565b606060028054610fda90613837565b80601f016020809104026020016040519081016040528092919081815260200182805461100690613837565b80156110535780601f1061102857610100808354040283529160200191611053565b820191906000526020600020905b81548152906001019060200180831161103657829003601f168201915b50505050509050919050565b60606000600161106e84611b9c565b01905060008167ffffffffffffffff81111561108d5761108c61288e565b5b6040519080825280601f01601f1916602001820160405280156110bf5781602001600182028036833780820191505090505b509050600082602001820190505b600115611122578080600190039150507f3031323334353637383961626364656600000000000000000000000000000000600a86061a8153600a858161111657611115613868565b5b049450600085036110cd575b819350505050919050565b600033905090565b8151835114611179576040517f08c379a000000000000000000000000000000000000000000000000000000000815260040161117090613909565b60405180910390fd5b600073ffffffffffffffffffffffffffffffffffffffff168473ffffffffffffffffffffffffffffffffffffffff16036111e8576040517f08c379a00000000000000000000000000000000000000000000000000000000081526004016111df9061399b565b60405180910390fd5b60006111f261112d565b9050611202818787878787611cef565b60005b84518110156113b3576000858281518110611223576112226133da565b5b602002602001015190506000858381518110611242576112416133da565b5b60200260200101519050600080600084815260200190815260200160002060008b73ffffffffffffffffffffffffffffffffffffffff1673ffffffffffffffffffffffffffffffffffffffff168152602001908152602001600020549050818110156112e3576040517f08c379a00000000000000000000000000000000000000000000000000000000081526004016112da90613a2d565b60405180910390fd5b81810360008085815260200190815260200160002060008c73ffffffffffffffffffffffffffffffffffffffff1673ffffffffffffffffffffffffffffffffffffffff168152602001908152602001600020819055508160008085815260200190815260200160002060008b73ffffffffffffffffffffffffffffffffffffffff1673ffffffffffffffffffffffffffffffffffffffff16815260200190815260200160002060008282546113989190613a4d565b92505081905550505050806113ac90613438565b9050611205565b508473ffffffffffffffffffffffffffffffffffffffff168673ffffffffffffffffffffffffffffffffffffffff168273ffffffffffffffffffffffffffffffffffffffff167f4a39dc06d4c0dbc64b70af90fd698a233a518aa5d07e595d983b8c0526c8f7fb878760405161142a929190613a81565b60405180910390a4611440818787878787611ebf565b61144e818787878787611ec7565b505050505050565b6000602860ff1682901c9050919050565b61146f61112d565b73ffffffffffffffffffffffffffffffffffffffff1661148d610bec565b73ffffffffffffffffffffffffffffffffffffffff16146114e3576040517f08c379a00000000000000000000000000000000000000000000000000000000081526004016114da90613b04565b60405180910390fd5b565b600073ffffffffffffffffffffffffffffffffffffffff168473ffffffffffffffffffffffffffffffffffffffff1603611554576040517f08c379a000000000000000000000000000000000000000000000000000000000815260040161154b90613b96565b60405180910390fd5b600061155e61112d565b9050600061156b8561209e565b905060006115788561209e565b905061158983600089858589611cef565b8460008088815260200190815260200160002060008973ffffffffffffffffffffffffffffffffffffffff1673ffffffffffffffffffffffffffffffffffffffff16815260200190815260200160002060008282546115e89190613a4d565b925050819055508673ffffffffffffffffffffffffffffffffffffffff16600073ffffffffffffffffffffffffffffffffffffffff168473ffffffffffffffffffffffffffffffffffffffff167fc3d58168c5ae7397731d063d5bbf3d657854427343f4c083240f7aacaa2d0f628989604051611666929190613bb6565b60405180910390a461167d83600089858589611ebf565b61168c83600089898989612118565b50505050505050565b6000600460009054906101000a900473ffffffffffffffffffffffffffffffffffffffff16905081600460006101000a81548173ffffffffffffffffffffffffffffffffffffffff021916908373ffffffffffffffffffffffffffffffffffffffff1602179055508173ffffffffffffffffffffffffffffffffffffffff168173ffffffffffffffffffffffffffffffffffffffff167f8be0079c531659141344cd1fd0a4f28419497f9722a3daafe3b4186f6b6457e060405160405180910390a35050565b806002908161176a9190613d8b565b5050565b8173ffffffffffffffffffffffffffffffffffffffff168373ffffffffffffffffffffffffffffffffffffffff16036117dc576040517f08c379a00000000000000000000000000000000000000000000000000000000081526004016117d390613ecf565b60405180910390fd5b80600160008573ffffffffffffffffffffffffffffffffffffffff1673ffffffffffffffffffffffffffffffffffffffff16815260200190815260200160002060008473ffffffffffffffffffffffffffffffffffffffff1673ffffffffffffffffffffffffffffffffffffffff16815260200190815260200160002060006101000a81548160ff0219169083151502179055508173ffffffffffffffffffffffffffffffffffffffff168373ffffffffffffffffffffffffffffffffffffffff167f17307eab39ab6107e8899845ad3d59bd9653f200f220920489ca2b5937696c31836040516118cd9190612765565b60405180910390a3505050565b60008060006118e985856122ef565b915091506118f681612340565b819250505092915050565b600073ffffffffffffffffffffffffffffffffffffffff168473ffffffffffffffffffffffffffffffffffffffff1603611970576040517f08c379a00000000000000000000000000000000000000000000000000000000081526004016119679061399b565b60405180910390fd5b600061197a61112d565b905060006119878561209e565b905060006119948561209e565b90506119a4838989858589611cef565b600080600088815260200190815260200160002060008a73ffffffffffffffffffffffffffffffffffffffff1673ffffffffffffffffffffffffffffffffffffffff16815260200190815260200160002054905085811015611a3b576040517f08c379a0000000000000000000000000000000000000000000000000000000008152600401611a3290613a2d565b60405180910390fd5b85810360008089815260200190815260200160002060008b73ffffffffffffffffffffffffffffffffffffffff1673ffffffffffffffffffffffffffffffffffffffff168152602001908152602001600020819055508560008089815260200190815260200160002060008a73ffffffffffffffffffffffffffffffffffffffff1673ffffffffffffffffffffffffffffffffffffffff1681526020019081526020016000206000828254611af09190613a4d565b925050819055508773ffffffffffffffffffffffffffffffffffffffff168973ffffffffffffffffffffffffffffffffffffffff168573ffffffffffffffffffffffffffffffffffffffff167fc3d58168c5ae7397731d063d5bbf3d657854427343f4c083240f7aacaa2d0f628a8a604051611b6d929190613bb6565b60405180910390a4611b83848a8a86868a611ebf565b611b91848a8a8a8a8a612118565b505050505050505050565b600080600090507a184f03e93ff9f4daa797ed6e38ed64bf6a1f0100000000000000008310611bfa577a184f03e93ff9f4daa797ed6e38ed64bf6a1f0100000000000000008381611bf057611bef613868565b5b0492506040810190505b6d04ee2d6d415b85acef81000000008310611c37576d04ee2d6d415b85acef81000000008381611c2d57611c2c613868565b5b0492506020810190505b662386f26fc100008310611c6657662386f26fc100008381611c5c57611c5b613868565b5b0492506010810190505b6305f5e1008310611c8f576305f5e1008381611c8557611c84613868565b5b0492506008810190505b6127108310611cb4576127108381611caa57611ca9613868565b5b0492506004810190505b60648310611cd75760648381611ccd57611ccc613868565b5b0492506002810190505b600a8310611ce6576001810190505b80915050919050565b611cfd8686868686866124a6565b600073ffffffffffffffffffffffffffffffffffffffff168573ffffffffffffffffffffffffffffffffffffffff1603611dae5760005b8351811015611dac57828181518110611d5057611d4f6133da565b5b602002602001015160036000868481518110611d6f57611d6e6133da565b5b602002602001015181526020019081526020016000206000828254611d949190613a4d565b9250508190555080611da590613438565b9050611d34565b505b600073ffffffffffffffffffffffffffffffffffffffff168473ffffffffffffffffffffffffffffffffffffffff1603611eb75760005b8351811015611eb5576000848281518110611e0357611e026133da565b5b602002602001015190506000848381518110611e2257611e216133da565b5b6020026020010151905060006003600084815260200190815260200160002054905081811015611e87576040517f08c379a0000000000000000000000000000000000000000000000000000000008152600401611e7e90613f61565b60405180910390fd5b818103600360008581526020019081526020016000208190555050505080611eae90613438565b9050611de5565b505b505050505050565b505050505050565b611ee68473ffffffffffffffffffffffffffffffffffffffff166124ae565b15612096578373ffffffffffffffffffffffffffffffffffffffff1663bc197c8187878686866040518663ffffffff1660e01b8152600401611f2c959493929190613fcb565b6020604051808303816000875af1925050508015611f6857506040513d601f19601f82011682018060405250810190611f659190614048565b60015b61200d57611f74614082565b806308c379a003611fd05750611f886140a4565b80611f935750611fd2565b806040517f08c379a0000000000000000000000000000000000000000000000000000000008152600401611fc7919061283d565b60405180910390fd5b505b6040517f08c379a0000000000000000000000000000000000000000000000000000000008152600401612004906141a6565b60405180910390fd5b63bc197c8160e01b7bffffffffffffffffffffffffffffffffffffffffffffffffffffffff1916817bffffffffffffffffffffffffffffffffffffffffffffffffffffffff191614612094576040517f08c379a000000000000000000000000000000000000000000000000000000000815260040161208b90614238565b60405180910390fd5b505b505050505050565b60606000600167ffffffffffffffff8111156120bd576120bc61288e565b5b6040519080825280602002602001820160405280156120eb5781602001602082028036833780820191505090505b5090508281600081518110612103576121026133da565b5b60200260200101818152505080915050919050565b6121378473ffffffffffffffffffffffffffffffffffffffff166124ae565b156122e7578373ffffffffffffffffffffffffffffffffffffffff1663f23a6e6187878686866040518663ffffffff1660e01b815260040161217d959493929190614258565b6020604051808303816000875af19250505080156121b957506040513d601f19601f820116820180604052508101906121b69190614048565b60015b61225e576121c5614082565b806308c379a00361222157506121d96140a4565b806121e45750612223565b806040517f08c379a0000000000000000000000000000000000000000000000000000000008152600401612218919061283d565b60405180910390fd5b505b6040517f08c379a0000000000000000000000000000000000000000000000000000000008152600401612255906141a6565b60405180910390fd5b63f23a6e6160e01b7bffffffffffffffffffffffffffffffffffffffffffffffffffffffff1916817bffffffffffffffffffffffffffffffffffffffffffffffffffffffff1916146122e5576040517f08c379a00000000000000000000000000000000000000000000000000000000081526004016122dc90614238565b60405180910390fd5b505b505050505050565b60008060418351036123305760008060006020860151925060408601519150606086015160001a9050612324878285856124d1565b94509450505050612339565b60006002915091505b9250929050565b60006004811115612354576123536142b2565b5b816004811115612367576123666142b2565b5b03156124a35760016004811115612381576123806142b2565b5b816004811115612394576123936142b2565b5b036123d4576040517f08c379a00000000000000000000000000000000000000000000000000000000081526004016123cb9061432d565b60405180910390fd5b600260048111156123e8576123e76142b2565b5b8160048111156123fb576123fa6142b2565b5b0361243b576040517f08c379a000000000000000000000000000000000000000000000000000000000815260040161243290614399565b60405180910390fd5b6003600481111561244f5761244e6142b2565b5b816004811115612462576124616142b2565b5b036124a2576040517f08c379a00000000000000000000000000000000000000000000000000000000081526004016124999061442b565b60405180910390fd5b5b50565b505050505050565b6000808273ffffffffffffffffffffffffffffffffffffffff163b119050919050565b6000807f7fffffffffffffffffffffffffffffff5d576e7357a4501ddfe92f46681b20a08360001c111561250c5760006003915091506125aa565b6000600187878787604051600081526020016040526040516125319493929190614476565b6020604051602081039080840390855afa158015612553573d6000803e3d6000fd5b505050602060405103519050600073ffffffffffffffffffffffffffffffffffffffff168173ffffffffffffffffffffffffffffffffffffffff16036125a1576000600192509250506125aa565b80600092509250505b94509492505050565b6000604051905090565b600080fd5b600080fd5b600073ffffffffffffffffffffffffffffffffffffffff82169050919050565b60006125f2826125c7565b9050919050565b612602816125e7565b811461260d57600080fd5b50565b60008135905061261f816125f9565b92915050565b6000819050919050565b61263881612625565b811461264357600080fd5b50565b6000813590506126558161262f565b92915050565b60008060408385031215612672576126716125bd565b5b600061268085828601612610565b925050602061269185828601612646565b9150509250929050565b6126a481612625565b82525050565b60006020820190506126bf600083018461269b565b92915050565b60007fffffffff0000000000000000000000000000000000000000000000000000000082169050919050565b6126fa816126c5565b811461270557600080fd5b50565b600081359050612717816126f1565b92915050565b600060208284031215612733576127326125bd565b5b600061274184828501612708565b91505092915050565b60008115159050919050565b61275f8161274a565b82525050565b600060208201905061277a6000830184612756565b92915050565b600060208284031215612796576127956125bd565b5b60006127a484828501612646565b91505092915050565b600081519050919050565b600082825260208201905092915050565b60005b838110156127e75780820151818401526020810190506127cc565b60008484015250505050565b6000601f19601f8301169050919050565b600061280f826127ad565b61281981856127b8565b93506128298185602086016127c9565b612832816127f3565b840191505092915050565b600060208201905081810360008301526128578184612804565b905092915050565b612868816125e7565b82525050565b6000602082019050612883600083018461285f565b92915050565b600080fd5b7f4e487b7100000000000000000000000000000000000000000000000000000000600052604160045260246000fd5b6128c6826127f3565b810181811067ffffffffffffffff821117156128e5576128e461288e565b5b80604052505050565b60006128f86125b3565b905061290482826128bd565b919050565b600067ffffffffffffffff8211156129245761292361288e565b5b602082029050602081019050919050565b600080fd5b600061294d61294884612909565b6128ee565b905080838252602082019050602084028301858111156129705761296f612935565b5b835b8181101561299957806129858882612646565b845260208401935050602081019050612972565b5050509392505050565b600082601f8301126129b8576129b7612889565b5b81356129c884826020860161293a565b91505092915050565b600080fd5b600067ffffffffffffffff8211156129f1576129f061288e565b5b6129fa826127f3565b9050602081019050919050565b82818337600083830152505050565b6000612a29612a24846129d6565b6128ee565b905082815260208101848484011115612a4557612a446129d1565b5b612a50848285612a07565b509392505050565b600082601f830112612a6d57612a6c612889565b5b8135612a7d848260208601612a16565b91505092915050565b600080600080600060a08688031215612aa257612aa16125bd565b5b6000612ab088828901612610565b9550506020612ac188828901612610565b945050604086013567ffffffffffffffff811115612ae257612ae16125c2565b5b612aee888289016129a3565b935050606086013567ffffffffffffffff811115612b0f57612b0e6125c2565b5b612b1b888289016129a3565b925050608086013567ffffffffffffffff811115612b3c57612b3b6125c2565b5b612b4888828901612a58565b9150509295509295909350565b600067ffffffffffffffff821115612b7057612b6f61288e565b5b602082029050602081019050919050565b6000612b94612b8f84612b55565b6128ee565b90508083825260208201905060208402830185811115612bb757612bb6612935565b5b835b81811015612be05780612bcc8882612610565b845260208401935050602081019050612bb9565b5050509392505050565b600082601f830112612bff57612bfe612889565b5b8135612c0f848260208601612b81565b91505092915050565b60008060408385031215612c2f57612c2e6125bd565b5b600083013567ffffffffffffffff811115612c4d57612c4c6125c2565b5b612c5985828601612bea565b925050602083013567ffffffffffffffff811115612c7a57612c796125c2565b5b612c86858286016129a3565b9150509250929050565b600081519050919050565b600082825260208201905092915050565b6000819050602082019050919050565b612cc581612625565b82525050565b6000612cd78383612cbc565b60208301905092915050565b6000602082019050919050565b6000612cfb82612c90565b612d058185612c9b565b9350612d1083612cac565b8060005b83811015612d41578151612d288882612ccb565b9750612d3383612ce3565b925050600181019050612d14565b5085935050505092915050565b60006020820190508181036000830152612d688184612cf0565b905092915050565b600060208284031215612d8657612d856125bd565b5b6000612d9484828501612610565b91505092915050565b60008060008060808587031215612db757612db66125bd565b5b6000612dc587828801612646565b9450506020612dd687828801612646565b9350506040612de787828801612646565b925050606085013567ffffffffffffffff811115612e0857612e076125c2565b5b612e1487828801612a58565b91505092959194509250565b60008060408385031215612e3757612e366125bd565b5b6000612e4585828601612646565b9250506020612e5685828601612610565b9150509250929050565b600067ffffffffffffffff821115612e7b57612e7a61288e565b5b612e84826127f3565b9050602081019050919050565b6000612ea4612e9f84612e60565b6128ee565b905082815260208101848484011115612ec057612ebf6129d1565b5b612ecb848285612a07565b509392505050565b600082601f830112612ee857612ee7612889565b5b8135612ef8848260208601612e91565b91505092915050565b600060208284031215612f1757612f166125bd565b5b600082013567ffffffffffffffff811115612f3557612f346125c2565b5b612f4184828501612ed3565b91505092915050565b612f538161274a565b8114612f5e57600080fd5b50565b600081359050612f7081612f4a565b92915050565b60008060408385031215612f8d57612f8c6125bd565b5b6000612f9b85828601612610565b9250506020612fac85828601612f61565b9150509250929050565b600080600080600060a08688031215612fd257612fd16125bd565b5b6000612fe088828901612646565b9550506020612ff188828901612610565b945050604061300288828901612646565b935050606061301388828901612646565b925050608086013567ffffffffffffffff811115613034576130336125c2565b5b61304088828901612a58565b9150509295509295909350565b600060208284031215613063576130626125bd565b5b600082013567ffffffffffffffff811115613081576130806125c2565b5b61308d84828501612a58565b91505092915050565b600080604083850312156130ad576130ac6125bd565b5b60006130bb85828601612610565b92505060206130cc85828601612610565b9150509250929050565b600080600080600060a086880312156130f2576130f16125bd565b5b600061310088828901612610565b955050602061311188828901612610565b945050604061312288828901612646565b935050606061313388828901612646565b925050608086013567ffffffffffffffff811115613154576131536125c2565b5b61316088828901612a58565b9150509295509295909350565b7f455243313135353a2061646472657373207a65726f206973206e6f742061207660008201527f616c6964206f776e657200000000000000000000000000000000000000000000602082015250565b60006131c9602a836127b8565b91506131d48261316d565b604082019050919050565b600060208201905081810360008301526131f8816131bc565b9050919050565b600081905092915050565b6000613215826127ad565b61321f81856131ff565b935061322f8185602086016127c9565b80840191505092915050565b7f2e6a736f6e000000000000000000000000000000000000000000000000000000600082015250565b60006132716005836131ff565b915061327c8261323b565b600582019050919050565b6000613293828561320a565b915061329f828461320a565b91506132aa82613264565b91508190509392505050565b7f455243313135353a2063616c6c6572206973206e6f7420746f6b656e206f776e60008201527f6572206f7220617070726f766564000000000000000000000000000000000000602082015250565b6000613312602e836127b8565b915061331d826132b6565b604082019050919050565b6000602082019050818103600083015261334181613305565b9050919050565b7f455243313135353a206163636f756e747320616e6420696473206c656e67746860008201527f206d69736d617463680000000000000000000000000000000000000000000000602082015250565b60006133a46029836127b8565b91506133af82613348565b604082019050919050565b600060208201905081810360008301526133d381613397565b9050919050565b7f4e487b7100000000000000000000000000000000000000000000000000000000600052603260045260246000fd5b7f4e487b7100000000000000000000000000000000000000000000000000000000600052601160045260246000fd5b600061344382612625565b91507fffffffffffffffffffffffffffffffffffffffffffffffffffffffffffffffff820361347557613474613409565b5b600182019050919050565b7f41646472657373206973206e6f7420616c6c6f776c6973746564000000000000600082015250565b60006134b6601a836127b8565b91506134c182613480565b602082019050919050565b600060208201905081810360008301526134e5816134a9565b9050919050565b600081519050919050565b600081905092915050565b600061350d826134ec565b61351781856134f7565b93506135278185602086016127c9565b80840191505092915050565b600061353f8284613502565b915081905092915050565b7f5369676e61747572652068617320616c7265616479206265656e20757365642e600082015250565b60006135806020836127b8565b915061358b8261354a565b602082019050919050565b600060208201905081810360008301526135af81613573565b9050919050565b7f416c726561647920696e697469616c697a656400000000000000000000000000600082015250565b60006135ec6013836127b8565b91506135f7826135b6565b602082019050919050565b6000602082019050818103600083015261361b816135df565b9050919050565b6000819050919050565b61363d61363882612625565b613622565b82525050565b60008160601b9050919050565b600061365b82613643565b9050919050565b600061366d82613650565b9050919050565b613685613680826125e7565b613662565b82525050565b6000613697828761362c565b6020820191506136a78286613674565b6014820191506136b7828561362c565b6020820191506136c7828461362c565b60208201915081905095945050505050565b7f19457468657265756d205369676e6564204d6573736167653a0a333200000000600082015250565b600061370f601c836131ff565b915061371a826136d9565b601c82019050919050565b6000819050919050565b6000819050919050565b61374a61374582613725565b61372f565b82525050565b600061375b82613702565b91506137678284613739565b60208201915081905092915050565b7f4f776e61626c653a206e6577206f776e657220697320746865207a65726f206160008201527f6464726573730000000000000000000000000000000000000000000000000000602082015250565b60006137d26026836127b8565b91506137dd82613776565b604082019050919050565b60006020820190508181036000830152613801816137c5565b9050919050565b7f4e487b7100000000000000000000000000000000000000000000000000000000600052602260045260246000fd5b6000600282049050600182168061384f57607f821691505b60208210810361386257613861613808565b5b50919050565b7f4e487b7100000000000000000000000000000000000000000000000000000000600052601260045260246000fd5b7f455243313135353a2069647320616e6420616d6f756e7473206c656e6774682060008201527f6d69736d61746368000000000000000000000000000000000000000000000000602082015250565b60006138f36028836127b8565b91506138fe82613897565b604082019050919050565b60006020820190508181036000830152613922816138e6565b9050919050565b7f455243313135353a207472616e7366657220746f20746865207a65726f20616460008201527f6472657373000000000000000000000000000000000000000000000000000000602082015250565b60006139856025836127b8565b915061399082613929565b604082019050919050565b600060208201905081810360008301526139b481613978565b9050919050565b7f455243313135353a20696e73756666696369656e742062616c616e636520666f60008201527f72207472616e7366657200000000000000000000000000000000000000000000602082015250565b6000613a17602a836127b8565b9150613a22826139bb565b604082019050919050565b60006020820190508181036000830152613a4681613a0a565b9050919050565b6000613a5882612625565b9150613a6383612625565b9250828201905080821115613a7b57613a7a613409565b5b92915050565b60006040820190508181036000830152613a9b8185612cf0565b90508181036020830152613aaf8184612cf0565b90509392505050565b7f4f776e61626c653a2063616c6c6572206973206e6f7420746865206f776e6572600082015250565b6000613aee6020836127b8565b9150613af982613ab8565b602082019050919050565b60006020820190508181036000830152613b1d81613ae1565b9050919050565b7f455243313135353a206d696e7420746f20746865207a65726f2061646472657360008201527f7300000000000000000000000000000000000000000000000000000000000000602082015250565b6000613b806021836127b8565b9150613b8b82613b24565b604082019050919050565b60006020820190508181036000830152613baf81613b73565b9050919050565b6000604082019050613bcb600083018561269b565b613bd8602083018461269b565b9392505050565b60008190508160005260206000209050919050565b60006020601f8301049050919050565b600082821b905092915050565b600060088302613c417fffffffffffffffffffffffffffffffffffffffffffffffffffffffffffffffff82613c04565b613c4b8683613c04565b95508019841693508086168417925050509392505050565b6000819050919050565b6000613c88613c83613c7e84612625565b613c63565b612625565b9050919050565b6000819050919050565b613ca283613c6d565b613cb6613cae82613c8f565b848454613c11565b825550505050565b600090565b613ccb613cbe565b613cd6818484613c99565b505050565b5b81811015613cfa57613cef600082613cc3565b600181019050613cdc565b5050565b601f821115613d3f57613d1081613bdf565b613d1984613bf4565b81016020851015613d28578190505b613d3c613d3485613bf4565b830182613cdb565b50505b505050565b600082821c905092915050565b6000613d6260001984600802613d44565b1980831691505092915050565b6000613d7b8383613d51565b9150826002028217905092915050565b613d94826127ad565b67ffffffffffffffff811115613dad57613dac61288e565b5b613db78254613837565b613dc2828285613cfe565b600060209050601f831160018114613df55760008415613de3578287015190505b613ded8582613d6f565b865550613e55565b601f198416613e0386613bdf565b60005b82811015613e2b57848901518255600182019150602085019450602081019050613e06565b86831015613e485784890151613e44601f891682613d51565b8355505b6001600288020188555050505b505050505050565b7f455243313135353a2073657474696e6720617070726f76616c2073746174757360008201527f20666f722073656c660000000000000000000000000000000000000000000000602082015250565b6000613eb96029836127b8565b9150613ec482613e5d565b604082019050919050565b60006020820190508181036000830152613ee881613eac565b9050919050565b7f455243313135353a206275726e20616d6f756e74206578636565647320746f7460008201527f616c537570706c79000000000000000000000000000000000000000000000000602082015250565b6000613f4b6028836127b8565b9150613f5682613eef565b604082019050919050565b60006020820190508181036000830152613f7a81613f3e565b9050919050565b600082825260208201905092915050565b6000613f9d826134ec565b613fa78185613f81565b9350613fb78185602086016127c9565b613fc0816127f3565b840191505092915050565b600060a082019050613fe0600083018861285f565b613fed602083018761285f565b8181036040830152613fff8186612cf0565b905081810360608301526140138185612cf0565b905081810360808301526140278184613f92565b90509695505050505050565b600081519050614042816126f1565b92915050565b60006020828403121561405e5761405d6125bd565b5b600061406c84828501614033565b91505092915050565b60008160e01c9050919050565b600060033d11156140a15760046000803e61409e600051614075565b90505b90565b600060443d10614131576140b66125b3565b60043d036004823e80513d602482011167ffffffffffffffff821117156140de575050614131565b808201805167ffffffffffffffff8111156140fc5750505050614131565b80602083010160043d038501811115614119575050505050614131565b614128826020018501866128bd565b82955050505050505b90565b7f455243313135353a207472616e7366657220746f206e6f6e2d4552433131353560008201527f526563656976657220696d706c656d656e746572000000000000000000000000602082015250565b60006141906034836127b8565b915061419b82614134565b604082019050919050565b600060208201905081810360008301526141bf81614183565b9050919050565b7f455243313135353a204552433131353552656365697665722072656a6563746560008201527f6420746f6b656e73000000000000000000000000000000000000000000000000602082015250565b60006142226028836127b8565b915061422d826141c6565b604082019050919050565b6000602082019050818103600083015261425181614215565b9050919050565b600060a08201905061426d600083018861285f565b61427a602083018761285f565b614287604083018661269b565b614294606083018561269b565b81810360808301526142a68184613f92565b90509695505050505050565b7f4e487b7100000000000000000000000000000000000000000000000000000000600052602160045260246000fd5b7f45434453413a20696e76616c6964207369676e61747572650000000000000000600082015250565b60006143176018836127b8565b9150614322826142e1565b602082019050919050565b600060208201905081810360008301526143468161430a565b9050919050565b7f45434453413a20696e76616c6964207369676e6174757265206c656e67746800600082015250565b6000614383601f836127b8565b915061438e8261434d565b602082019050919050565b600060208201905081810360008301526143b281614376565b9050919050565b7f45434453413a20696e76616c6964207369676e6174757265202773272076616c60008201527f7565000000000000000000000000000000000000000000000000000000000000602082015250565b60006144156022836127b8565b9150614420826143b9565b604082019050919050565b6000602082019050818103600083015261444481614408565b9050919050565b61445481613725565b82525050565b600060ff82169050919050565b6144708161445a565b82525050565b600060808201905061448b600083018761444b565b6144986020830186614467565b6144a5604083018561444b565b6144b2606083018461444b565b9594505050505056fea264697066735822122077e759463bf4d2a809d57cfb014a63f5721f4f1a35f8104920440816daf6a94764736f6c63430008140033",
  "devdoc": {
    "events": {
      "ApprovalForAll(address,address,bool)": {
        "details": "Emitted when `account` grants or revokes permission to `operator` to transfer their tokens, according to `approved`."
      },
      "TransferBatch(address,address,address,uint256[],uint256[])": {
        "details": "Equivalent to multiple {TransferSingle} events, where `operator`, `from` and `to` are the same for all transfers."
      },
      "TransferSingle(address,address,address,uint256,uint256)": {
        "details": "Emitted when `value` tokens of token type `id` are transferred from `from` to `to` by `operator`."
      },
      "URI(string,uint256)": {
        "details": "Emitted when the URI for token type `id` changes to `value`, if it is a non-programmatic URI. If an {URI} event was emitted for `id`, the standard https://eips.ethereum.org/EIPS/eip-1155#metadata-extensions[guarantees] that `value` will equal the value returned by {IERC1155MetadataURI-uri}."
      }
    },
    "kind": "dev",
    "methods": {
      "balanceOf(address,uint256)": {
        "details": "See {IERC1155-balanceOf}. Requirements: - `account` cannot be the zero address."
      },
      "balanceOfBatch(address[],uint256[])": {
        "details": "See {IERC1155-balanceOfBatch}. Requirements: - `accounts` and `ids` must have the same length."
      },
      "exists(uint256)": {
        "details": "Indicates whether any token exist with a given id, or not."
      },
      "isApprovedForAll(address,address)": {
        "details": "See {IERC1155-isApprovedForAll}."
      },
      "owner()": {
        "details": "Returns the address of the current owner."
      },
      "renounceOwnership()": {
        "details": "Leaves the contract without owner. It will not be possible to call `onlyOwner` functions. Can only be called by the current owner. NOTE: Renouncing ownership will leave the contract without an owner, thereby disabling any functionality that is only available to the owner."
      },
      "safeBatchTransferFrom(address,address,uint256[],uint256[],bytes)": {
        "details": "See {IERC1155-safeBatchTransferFrom}."
      },
      "safeTransferFrom(address,address,uint256,uint256,bytes)": {
        "details": "See {IERC1155-safeTransferFrom}."
      },
      "setApprovalForAll(address,bool)": {
        "details": "See {IERC1155-setApprovalForAll}."
      },
      "supportsInterface(bytes4)": {
        "details": "See {IERC165-supportsInterface}."
      },
      "totalSupply(uint256)": {
        "details": "Total amount of tokens in with a given id."
      },
      "transferOwnership(address)": {
        "details": "Transfers ownership of the contract to a new account (`newOwner`). Can only be called by the current owner."
      }
    },
    "version": 1
  },
  "userdoc": {
    "kind": "user",
    "methods": {},
    "version": 1
  },
  "storageLayout": {
    "storage": [
      {
        "astId": 792,
        "contract": "contracts/CommunityBadge.sol:CommunityBadge",
        "label": "_balances",
        "offset": 0,
        "slot": "0",
        "type": "t_mapping(t_uint256,t_mapping(t_address,t_uint256))"
      },
      {
        "astId": 798,
        "contract": "contracts/CommunityBadge.sol:CommunityBadge",
        "label": "_operatorApprovals",
        "offset": 0,
        "slot": "1",
        "type": "t_mapping(t_address,t_mapping(t_address,t_bool))"
      },
      {
        "astId": 800,
        "contract": "contracts/CommunityBadge.sol:CommunityBadge",
        "label": "_uri",
        "offset": 0,
        "slot": "2",
        "type": "t_string_storage"
      },
      {
        "astId": 1997,
        "contract": "contracts/CommunityBadge.sol:CommunityBadge",
        "label": "_totalSupply",
        "offset": 0,
        "slot": "3",
        "type": "t_mapping(t_uint256,t_uint256)"
      },
      {
        "astId": 3709,
        "contract": "contracts/CommunityBadge.sol:CommunityBadge",
        "label": "_owner",
        "offset": 0,
        "slot": "4",
        "type": "t_address"
      },
      {
        "astId": 3862,
        "contract": "contracts/CommunityBadge.sol:CommunityBadge",
        "label": "signatureUsed",
        "offset": 0,
        "slot": "5",
        "type": "t_mapping(t_bytes_memory_ptr,t_bool)"
      },
      {
        "astId": 3866,
        "contract": "contracts/CommunityBadge.sol:CommunityBadge",
        "label": "_creatorOverride",
        "offset": 0,
        "slot": "6",
        "type": "t_mapping(t_uint256,t_address)"
      },
      {
        "astId": 3868,
        "contract": "contracts/CommunityBadge.sol:CommunityBadge",
        "label": "signer",
        "offset": 0,
        "slot": "7",
        "type": "t_address"
      }
    ],
    "types": {
      "t_address": {
        "encoding": "inplace",
        "label": "address",
        "numberOfBytes": "20"
      },
      "t_bool": {
        "encoding": "inplace",
        "label": "bool",
        "numberOfBytes": "1"
      },
      "t_bytes_memory_ptr": {
        "encoding": "bytes",
        "label": "bytes",
        "numberOfBytes": "32"
      },
      "t_mapping(t_address,t_bool)": {
        "encoding": "mapping",
        "key": "t_address",
        "label": "mapping(address => bool)",
        "numberOfBytes": "32",
        "value": "t_bool"
      },
      "t_mapping(t_address,t_mapping(t_address,t_bool))": {
        "encoding": "mapping",
        "key": "t_address",
        "label": "mapping(address => mapping(address => bool))",
        "numberOfBytes": "32",
        "value": "t_mapping(t_address,t_bool)"
      },
      "t_mapping(t_address,t_uint256)": {
        "encoding": "mapping",
        "key": "t_address",
        "label": "mapping(address => uint256)",
        "numberOfBytes": "32",
        "value": "t_uint256"
      },
      "t_mapping(t_bytes_memory_ptr,t_bool)": {
        "encoding": "mapping",
        "key": "t_bytes_memory_ptr",
        "label": "mapping(bytes => bool)",
        "numberOfBytes": "32",
        "value": "t_bool"
      },
      "t_mapping(t_uint256,t_address)": {
        "encoding": "mapping",
        "key": "t_uint256",
        "label": "mapping(uint256 => address)",
        "numberOfBytes": "32",
        "value": "t_address"
      },
      "t_mapping(t_uint256,t_mapping(t_address,t_uint256))": {
        "encoding": "mapping",
        "key": "t_uint256",
        "label": "mapping(uint256 => mapping(address => uint256))",
        "numberOfBytes": "32",
        "value": "t_mapping(t_address,t_uint256)"
      },
      "t_mapping(t_uint256,t_uint256)": {
        "encoding": "mapping",
        "key": "t_uint256",
        "label": "mapping(uint256 => uint256)",
        "numberOfBytes": "32",
        "value": "t_uint256"
      },
      "t_string_storage": {
        "encoding": "bytes",
        "label": "string",
        "numberOfBytes": "32"
      },
      "t_uint256": {
        "encoding": "inplace",
        "label": "uint256",
        "numberOfBytes": "32"
      }
    }
  }
}